{
  "_format": "hh-sol-artifact-1",
  "contractName": "TrueMatch",
  "sourceName": "contracts/TrueMatch.sol",
  "abi": [
    {
      "inputs": [
        {
          "internalType": "uint256",
          "name": "_complaintValidPeriod",
          "type": "uint256"
        },
        {
          "internalType": "uint256",
          "name": "_initialScore",
          "type": "uint256"
        }
      ],
      "stateMutability": "nonpayable",
      "type": "constructor"
    },
    {
      "inputs": [],
      "name": "addBalance",
      "outputs": [],
      "stateMutability": "payable",
      "type": "function"
    },
    {
      "inputs": [
        {
          "internalType": "address",
          "name": "",
          "type": "address"
        }
      ],
      "name": "balances",
      "outputs": [
        {
          "internalType": "uint256",
          "name": "",
          "type": "uint256"
        }
      ],
      "stateMutability": "view",
      "type": "function"
    },
    {
      "inputs": [],
      "name": "complaintValidPeriod",
      "outputs": [
        {
          "internalType": "uint256",
          "name": "",
          "type": "uint256"
        }
      ],
      "stateMutability": "view",
      "type": "function"
    },
    {
      "inputs": [
        {
          "internalType": "bytes32",
          "name": "",
          "type": "bytes32"
        }
      ],
      "name": "complaints",
      "outputs": [
        {
          "internalType": "address",
          "name": "submitter",
          "type": "address"
        },
        {
          "internalType": "uint256",
          "name": "blocknumber",
          "type": "uint256"
        },
        {
          "internalType": "bytes32",
          "name": "descHash",
          "type": "bytes32"
        },
        {
          "internalType": "bytes32",
          "name": "matchId",
          "type": "bytes32"
        }
      ],
      "stateMutability": "view",
      "type": "function"
    },
    {
      "inputs": [
        {
          "internalType": "address",
          "name": "user",
          "type": "address"
        }
      ],
      "name": "getBalance",
      "outputs": [
        {
          "internalType": "uint256",
          "name": "",
          "type": "uint256"
        }
      ],
      "stateMutability": "view",
      "type": "function"
    },
    {
      "inputs": [],
      "name": "initialScore",
      "outputs": [
        {
          "internalType": "uint256",
          "name": "",
          "type": "uint256"
        }
      ],
      "stateMutability": "view",
      "type": "function"
    },
    {
      "inputs": [
        {
          "internalType": "address",
          "name": "",
          "type": "address"
        }
      ],
      "name": "scores",
      "outputs": [
        {
          "internalType": "uint256",
          "name": "",
          "type": "uint256"
        }
      ],
      "stateMutability": "view",
      "type": "function"
    }
  ],
  "bytecode": "0x608060405234801561001057600080fd5b5060405161033938038061033983398101604081905261002f9161003d565b600391909155600455610061565b6000806040838503121561005057600080fd5b505080516020909101519092909150565b6102c9806100706000396000f3fe6080604052600436106100705760003560e01c80638b86c0321161004e5780638b86c032146100f8578063b163cc381461010e578063e307bf2a14610118578063f8b2cb4f1461018e57600080fd5b806327e235e314610075578063541e14cd146100b557806376dd110f146100cb575b600080fd5b34801561008157600080fd5b506100a2610090366004610223565b60006020819052908152604090205481565b6040519081526020015b60405180910390f35b3480156100c157600080fd5b506100a260045481565b3480156100d757600080fd5b506100a26100e6366004610223565b60016020526000908152604090205481565b34801561010457600080fd5b506100a260035481565b6101166101c4565b005b34801561012457600080fd5b50610164610133366004610253565b60026020526000908152604090208054600382015460048301546005909301546001600160a01b0390921692909184565b604080516001600160a01b03909516855260208501939093529183015260608201526080016100ac565b34801561019a57600080fd5b506100a26101a9366004610223565b6001600160a01b031660009081526020819052604090205490565b33600081815260208190526040812054908190036101f9576004546001600160a01b0383166000908152600160205260409020555b610203348261026c565b6001600160a01b0390921660009081526020819052604090209190915550565b60006020828403121561023557600080fd5b81356001600160a01b038116811461024c57600080fd5b9392505050565b60006020828403121561026557600080fd5b5035919050565b8082018082111561028d57634e487b7160e01b600052601160045260246000fd5b9291505056fea2646970667358221220460957539cd278c2ce3e42d7431ad14b4b93a48e863547b47990e9c83cf7eba864736f6c63430008180033",
  "linkReferences": {},
  "deployedLinkReferences": {}
}