{
  "_format": "hh-sol-artifact-1",
  "contractName": "TrueMatch",
  "sourceName": "contracts/TrueMatch.sol",
  "abi": [
    {
      "inputs": [
        {
          "internalType": "uint256",
          "name": "_complaintValidPeriod",
          "type": "uint256"
        },
        {
          "internalType": "uint256",
          "name": "_initialScore",
          "type": "uint256"
        },
        {
          "internalType": "uint256",
          "name": "_factorA",
          "type": "uint256"
        },
        {
          "internalType": "uint256",
          "name": "_factorB",
          "type": "uint256"
        }
      ],
      "stateMutability": "nonpayable",
      "type": "constructor"
    },
    {
      "inputs": [],
      "name": "addBalance",
      "outputs": [],
      "stateMutability": "payable",
      "type": "function"
    },
    {
      "inputs": [
        {
          "internalType": "address",
          "name": "",
          "type": "address"
        }
      ],
      "name": "balances",
      "outputs": [
        {
          "internalType": "uint256",
          "name": "",
          "type": "uint256"
        }
      ],
      "stateMutability": "view",
      "type": "function"
    },
    {
      "inputs": [],
      "name": "complaintValidPeriod",
      "outputs": [
        {
          "internalType": "uint256",
          "name": "",
          "type": "uint256"
        }
      ],
      "stateMutability": "view",
      "type": "function"
    },
    {
      "inputs": [
        {
          "internalType": "bytes32",
          "name": "",
          "type": "bytes32"
        }
      ],
      "name": "complaints",
      "outputs": [
        {
          "internalType": "address",
          "name": "submitter",
          "type": "address"
        },
        {
          "internalType": "uint256",
          "name": "blocknumber",
          "type": "uint256"
        },
        {
          "internalType": "bytes32",
          "name": "descHash",
          "type": "bytes32"
        },
        {
          "internalType": "bytes32",
          "name": "matchId",
          "type": "bytes32"
        }
      ],
      "stateMutability": "view",
      "type": "function"
    },
    {
      "inputs": [],
      "name": "factorA",
      "outputs": [
        {
          "internalType": "uint256",
          "name": "",
          "type": "uint256"
        }
      ],
      "stateMutability": "view",
      "type": "function"
    },
    {
      "inputs": [],
      "name": "factorB",
      "outputs": [
        {
          "internalType": "uint256",
          "name": "",
          "type": "uint256"
        }
      ],
      "stateMutability": "view",
      "type": "function"
    },
    {
      "inputs": [
        {
          "internalType": "address",
          "name": "user",
          "type": "address"
        }
      ],
      "name": "getBalance",
      "outputs": [
        {
          "internalType": "uint256",
          "name": "",
          "type": "uint256"
        }
      ],
      "stateMutability": "view",
      "type": "function"
    },
    {
      "inputs": [
        {
          "internalType": "address",
          "name": "user",
          "type": "address"
        }
      ],
      "name": "getScore",
      "outputs": [
        {
          "internalType": "uint256",
          "name": "",
          "type": "uint256"
        }
      ],
      "stateMutability": "view",
      "type": "function"
    },
    {
      "inputs": [],
      "name": "initialScore",
      "outputs": [
        {
          "internalType": "uint256",
          "name": "",
          "type": "uint256"
        }
      ],
      "stateMutability": "view",
      "type": "function"
    },
    {
      "inputs": [
        {
          "internalType": "address",
          "name": "",
          "type": "address"
        }
      ],
      "name": "scores",
      "outputs": [
        {
          "internalType": "uint256",
          "name": "",
          "type": "uint256"
        }
      ],
      "stateMutability": "view",
      "type": "function"
    }
  ],
  "bytecode": "0x608060405234801561001057600080fd5b506040516103d73803806103d783398101604081905261002f91610046565b60039390935560049190915560055560065561007c565b6000806000806080858703121561005c57600080fd5b505082516020840151604085015160609095015191969095509092509050565b61034c8061008b6000396000f3fe6080604052600436106100915760003560e01c80638b86c032116100595780638b86c03214610145578063b163cc381461015b578063d47875d014610165578063e307bf2a1461019b578063f8b2cb4f1461021157600080fd5b806326f54c4d1461009657806327e235e3146100bf578063541e14cd146100ec578063748a6c9a1461010257806376dd110f14610118575b600080fd5b3480156100a257600080fd5b506100ac60055481565b6040519081526020015b60405180910390f35b3480156100cb57600080fd5b506100ac6100da3660046102a6565b60006020819052908152604090205481565b3480156100f857600080fd5b506100ac60045481565b34801561010e57600080fd5b506100ac60065481565b34801561012457600080fd5b506100ac6101333660046102a6565b60016020526000908152604090205481565b34801561015157600080fd5b506100ac60035481565b610163610247565b005b34801561017157600080fd5b506100ac6101803660046102a6565b6001600160a01b031660009081526001602052604090205490565b3480156101a757600080fd5b506101e76101b63660046102d6565b60026020526000908152604090208054600382015460048301546005909301546001600160a01b0390921692909184565b604080516001600160a01b03909516855260208501939093529183015260608201526080016100b6565b34801561021d57600080fd5b506100ac61022c3660046102a6565b6001600160a01b031660009081526020819052604090205490565b336000818152602081905260408120549081900361027c576004546001600160a01b0383166000908152600160205260409020555b61028634826102ef565b6001600160a01b0390921660009081526020819052604090209190915550565b6000602082840312156102b857600080fd5b81356001600160a01b03811681146102cf57600080fd5b9392505050565b6000602082840312156102e857600080fd5b5035919050565b8082018082111561031057634e487b7160e01b600052601160045260246000fd5b9291505056fea2646970667358221220f0f702f02103ba51de42a855f9e82ac6604e7f1adc5e93effa37a70a7bc1dbec64736f6c63430008180033",
  "linkReferences": {},
  "deployedLinkReferences": {}
}