{
  "_format": "hh-sol-artifact-1",
  "contractName": "TrueMatch",
  "sourceName": "contracts/TrueMatch.sol",
  "abi": [
    {
      "inputs": [
        {
          "internalType": "uint256",
          "name": "_compliantValidPeriod",
          "type": "uint256"
        },
        {
          "internalType": "uint256",
          "name": "_initialScore",
          "type": "uint256"
        },
        {
          "internalType": "uint256",
          "name": "_factorA",
          "type": "uint256"
        },
        {
          "internalType": "uint256",
          "name": "_factorB",
          "type": "uint256"
        }
      ],
      "stateMutability": "nonpayable",
      "type": "constructor"
    },
    {
      "anonymous": false,
      "inputs": [
        {
          "indexed": true,
          "internalType": "address",
          "name": "userOne",
          "type": "address"
        },
        {
          "indexed": false,
          "internalType": "address",
          "name": "userTwo",
          "type": "address"
        },
        {
          "indexed": false,
          "internalType": "bytes32",
          "name": "matchId",
          "type": "bytes32"
        }
      ],
      "name": "MatchCreation",
      "type": "event"
    },
    {
      "anonymous": false,
      "inputs": [
        {
          "indexed": true,
          "internalType": "address",
          "name": "user",
          "type": "address"
        }
      ],
      "name": "UserCreation",
      "type": "event"
    },
    {
      "inputs": [],
      "name": "addBalance",
      "outputs": [],
      "stateMutability": "payable",
      "type": "function"
    },
    {
      "inputs": [
        {
          "internalType": "address",
          "name": "",
          "type": "address"
        }
      ],
      "name": "balances",
      "outputs": [
        {
          "internalType": "uint256",
          "name": "",
          "type": "uint256"
        }
      ],
      "stateMutability": "view",
      "type": "function"
    },
    {
      "inputs": [],
      "name": "compliantValidPeriod",
      "outputs": [
        {
          "internalType": "uint256",
          "name": "",
          "type": "uint256"
        }
      ],
      "stateMutability": "view",
      "type": "function"
    },
    {
      "inputs": [
        {
          "internalType": "bytes32",
          "name": "",
          "type": "bytes32"
        }
      ],
      "name": "compliants",
      "outputs": [
        {
          "internalType": "address",
          "name": "submitter",
          "type": "address"
        },
        {
          "internalType": "uint256",
          "name": "blockNum",
          "type": "uint256"
        },
        {
          "internalType": "string",
          "name": "desc",
          "type": "string"
        },
        {
          "internalType": "bytes32",
          "name": "matchId",
          "type": "bytes32"
        },
        {
          "internalType": "address",
          "name": "receiver",
          "type": "address"
        }
      ],
      "stateMutability": "view",
      "type": "function"
    },
    {
      "inputs": [],
      "name": "factorA",
      "outputs": [
        {
          "internalType": "uint256",
          "name": "",
          "type": "uint256"
        }
      ],
      "stateMutability": "view",
      "type": "function"
    },
    {
      "inputs": [],
      "name": "factorB",
      "outputs": [
        {
          "internalType": "uint256",
          "name": "",
          "type": "uint256"
        }
      ],
      "stateMutability": "view",
      "type": "function"
    },
    {
      "inputs": [
        {
          "internalType": "address",
          "name": "user",
          "type": "address"
        }
      ],
      "name": "getBalance",
      "outputs": [
        {
          "internalType": "uint256",
          "name": "",
          "type": "uint256"
        }
      ],
      "stateMutability": "view",
      "type": "function"
    },
    {
      "inputs": [
        {
          "internalType": "address",
          "name": "user",
          "type": "address"
        }
      ],
      "name": "getScore",
      "outputs": [
        {
          "internalType": "uint256",
          "name": "",
          "type": "uint256"
        }
      ],
      "stateMutability": "view",
      "type": "function"
    },
    {
      "inputs": [],
      "name": "initialScore",
      "outputs": [
        {
          "internalType": "uint256",
          "name": "",
          "type": "uint256"
        }
      ],
      "stateMutability": "view",
      "type": "function"
    },
    {
      "inputs": [
        {
          "internalType": "bytes32",
          "name": "",
          "type": "bytes32"
        }
      ],
      "name": "matches",
      "outputs": [
        {
          "internalType": "address",
          "name": "userFirst",
          "type": "address"
        },
        {
          "internalType": "address",
          "name": "userSecond",
          "type": "address"
        },
        {
          "internalType": "bytes32",
          "name": "matchId",
          "type": "bytes32"
        },
        {
          "internalType": "uint256",
          "name": "blockNum",
          "type": "uint256"
        }
      ],
      "stateMutability": "view",
      "type": "function"
    },
    {
      "inputs": [
        {
          "internalType": "address",
          "name": "user",
          "type": "address"
        }
      ],
      "name": "minimumFunds",
      "outputs": [
        {
          "internalType": "uint256",
          "name": "",
          "type": "uint256"
        }
      ],
      "stateMutability": "view",
      "type": "function"
    },
    {
      "inputs": [
        {
          "internalType": "address",
          "name": "",
          "type": "address"
        },
        {
          "internalType": "uint256",
          "name": "",
          "type": "uint256"
        }
      ],
      "name": "pendingMatches",
      "outputs": [
        {
          "internalType": "address",
          "name": "receiver",
          "type": "address"
        },
        {
          "internalType": "uint256",
          "name": "blockNum",
          "type": "uint256"
        }
      ],
      "stateMutability": "view",
      "type": "function"
    },
    {
      "inputs": [
        {
          "internalType": "address",
          "name": "",
          "type": "address"
        }
      ],
      "name": "scores",
      "outputs": [
        {
          "internalType": "uint256",
          "name": "",
          "type": "uint256"
        }
      ],
      "stateMutability": "view",
      "type": "function"
    },
    {
      "inputs": [
        {
          "internalType": "address",
          "name": "receiver",
          "type": "address"
        }
      ],
      "name": "sendMatchRequest",
      "outputs": [
        {
          "internalType": "bytes32",
          "name": "",
          "type": "bytes32"
        }
      ],
      "stateMutability": "nonpayable",
      "type": "function"
    },
    {
      "inputs": [
        {
          "internalType": "bytes32",
          "name": "matchId",
          "type": "bytes32"
        },
        {
          "internalType": "string",
          "name": "desc",
          "type": "string"
        }
      ],
      "name": "sendcompliants",
      "outputs": [],
      "stateMutability": "nonpayable",
      "type": "function"
    },
    {
      "inputs": [
        {
          "internalType": "bytes32",
          "name": "matchId",
          "type": "bytes32"
        }
      ],
      "name": "settleDownCompliant",
      "outputs": [],
      "stateMutability": "payable",
      "type": "function"
    },
    {
      "inputs": [
        {
          "internalType": "address",
          "name": "",
          "type": "address"
        },
        {
          "internalType": "uint256",
          "name": "",
          "type": "uint256"
        }
      ],
      "name": "userMatches",
      "outputs": [
        {
          "internalType": "bytes32",
          "name": "",
          "type": "bytes32"
        }
      ],
      "stateMutability": "view",
      "type": "function"
    },
    {
      "inputs": [
        {
          "internalType": "bytes32",
          "name": "matchId",
          "type": "bytes32"
        },
        {
          "internalType": "bool",
          "name": "voteForSupport",
          "type": "bool"
        }
      ],
      "name": "verdictCompliant",
      "outputs": [],
      "stateMutability": "payable",
      "type": "function"
    }
  ],
  "bytecode": "0x608060405234801561001057600080fd5b506040516119de3803806119de83398101604081905261002f91610046565b60009390935560019190915560025560035561007c565b6000806000806080858703121561005c57600080fd5b505082516020840151604085015160609095015191969095509092509050565b6119538061008b6000396000f3fe6080604052600436106101095760003560e01c806393d1d4c111610095578063b163cc3811610064578063b163cc3814610332578063d47875d01461033a578063f26c1ffa14610370578063f8b2cb4f14610383578063fd7fef9c146103b957600080fd5b806393d1d4c1146102475780639fe9ada314610267578063a20f9b19146102e1578063a245119c1461030157600080fd5b8063541e14cd116100dc578063541e14cd146101995780636247fe93146101af578063676e79b2146101c5578063748a6c9a1461020457806376dd110f1461021a57600080fd5b80631e7878af1461010e57806326f54c4d1461014157806327e235e31461015757806328a5167d14610184575b600080fd5b34801561011a57600080fd5b5061012e61012936600461144f565b6103d9565b6040519081526020015b60405180910390f35b34801561014d57600080fd5b5061012e60025481565b34801561016357600080fd5b5061012e61017236600461144f565b60046020526000908152604090205481565b610197610192366004611471565b61073f565b005b3480156101a557600080fd5b5061012e60015481565b3480156101bb57600080fd5b5061012e60005481565b3480156101d157600080fd5b506101e56101e03660046114a6565b61092a565b604080516001600160a01b039093168352602083019190915201610138565b34801561021057600080fd5b5061012e60035481565b34801561022657600080fd5b5061012e61023536600461144f565b60056020526000908152604090205481565b34801561025357600080fd5b5061012e61026236600461144f565b610970565b34801561027357600080fd5b506102b66102823660046114d0565b60086020526000908152604090208054600182015460028301546003909301546001600160a01b0392831693919092169184565b604080516001600160a01b039586168152949093166020850152918301526060820152608001610138565b3480156102ed57600080fd5b506101976102fc3660046114ff565b6109a9565b34801561030d57600080fd5b5061032161031c3660046114d0565b610e97565b6040516101389594939291906115de565b610197610f64565b34801561034657600080fd5b5061012e61035536600461144f565b6001600160a01b031660009081526005602052604090205490565b61019761037e3660046114d0565b610fee565b34801561038f57600080fd5b5061012e61039e36600461144f565b6001600160a01b031660009081526004602052604090205490565b3480156103c557600080fd5b5061012e6103d43660046114a6565b61130d565b33600081815260046020526040812054909190826103f683610970565b90508082101561040557600080fd5b6001600160a01b03851660009081526007602090815260408083208054825181850281018501909352808352339493849084015b82821015610481576000848152602090819020604080518082019091526002850290910180546001600160a01b03168252600190810154828401529083529092019101610439565b50505050905060005b81518110156106cd57826001600160a01b03168282815181106104af576104af61163b565b6020026020010151600001516001600160a01b0316036106c5578181815181106104db576104db61163b565b60200260200101610508604051806040016040528060006001600160a01b03168152602001600081525090565b9052604080513360208201526001600160a01b038a169181019190915243606082015260009060029060800160408051601f198184030181529082905261054e91611651565b602060405180830381855afa15801561056b573d6000803e3d6000fd5b5050506040513d601f19601f8201168201806040525081019061058e919061166d565b604080516080810182526001600160a01b038781168083528d82166020808501828152858701888152436060880190815260008a815260088552898120985189549089166001600160a01b0319918216178a5593516001808b01805492909a16919095161790975590516002880155516003909601959095558284526009815285842080548087018255908552818520018790558184528584208054958601815584529283902090930185905583519283529082018490529293507f504d843199032015e6b3fb9c84bd1d1009bbcf264b8a4f64ca5325229ae70152910160405180910390a2604080516001600160a01b038681168252602082018490528b16917f504d843199032015e6b3fb9c84bd1d1009bbcf264b8a4f64ca5325229ae70152910160405180910390a2965061073792505050565b60010161048a565b50506040805180820182526001600160a01b0388811682524360208084019182529482166000908152600786529384208054600180820183559186529585209351600290960290930180546001600160a01b03191695909216949094178155925192019190915593505b505050919050565b60008281526006602052604081209054600582015461075e904361169c565b11156107bb5760405162461bcd60e51b815260206004820152602160248201527f74686520636f6d706c69616e742069736e27742076616c696420616e796d6f726044820152606560f81b60648201526084015b60405180910390fd5b3334831561080d576001838101805480830182556000918252602080832090910180546001600160a01b0319166001600160a01b03871617905560038601805493840181558252902001819055610854565b600283018054600180820183556000928352602080842090920180546001600160a01b0319166001600160a01b038716179055600486018054918201815583529120018190555b6000858152600660205260409020835481546001600160a01b0319166001600160a01b0390911617815560018085018054869392610895929084019161133e565b50600282810180546108aa928401919061133e565b50600382810180546108bf928401919061133e565b50600482810180546108d4928401919061133e565b5060058201548160050155600682018160060190816108f39190611736565b5060078281015490820155600891820154910180546001600160a01b0319166001600160a01b039092169190911790555050505050565b6007602052816000526040600020818154811061094657600080fd5b6000918252602090912060029091020180546001909101546001600160a01b039091169250905082565b6001600160a01b0381166000908152600560205260408120546003546109969190611817565b6002546109a3919061182a565b92915050565b600082815260086020908152604091829020825160808101845281546001600160a01b039081168083526001840154909116938201939093526002820154938101939093526003015460608301523390811480610a1b5750806001600160a01b031682602001516001600160a01b0316145b610a8d5760405162461bcd60e51b815260206004820152603c60248201527f63616e2774207375626d697420636f6d706c69616e7420746f2061206d61746360448201527f68207468617420646f65736e27742062656c6f6e6720746f20796f750000000060648201526084016107b2565b600084815260066020908152604080832081516101208101835281546001600160a01b031681526001820180548451818702810187019095528085529194929385840193909290830182828015610b0d57602002820191906000526020600020905b81546001600160a01b03168152600190910190602001808311610aef575b5050505050815260200160028201805480602002602001604051908101604052809291908181526020018280548015610b6f57602002820191906000526020600020905b81546001600160a01b03168152600190910190602001808311610b51575b5050505050815260200160038201805480602002602001604051908101604052809291908181526020018280548015610bc757602002820191906000526020600020905b815481526020019060010190808311610bb3575b5050505050815260200160048201805480602002602001604051908101604052809291908181526020018280548015610c1f57602002820191906000526020600020905b815481526020019060010190808311610c0b575b5050505050815260200160058201548152602001600682018054610c42906116af565b80601f0160208091040260200160405190810160405280929190818152602001828054610c6e906116af565b8015610cbb5780601f10610c9057610100808354040283529160200191610cbb565b820191906000526020600020905b815481529060010190602001808311610c9e57829003601f168201915b5050509183525050600782015460208201526008909101546001600160a01b039081166040909201919091528151919250838116911603610d495760405162461bcd60e51b815260206004820152602260248201527f63616e2774207375626d6974206475706c69636174656420636f6d706c69616e604482015261747360f01b60648201526084016107b2565b60408051610120810182526001600160a01b03848116825260606020808401828152848601839052828501839052608085018390524360a086015260c085018a905260e085018b90526101008781015185169086015260008b81526006835295909520845181546001600160a01b0319169416939093178355935180519194859485948594919384939192610de4926001850192019061138e565b5060408201518051610e0091600284019160209091019061138e565b5060608201518051610e1c9160038401916020909101906113e3565b5060808201518051610e389160048401916020909101906113e3565b5060a0820151600582015560c08201516006820190610e57908261184c565b5060e0820151600782015561010090910151600890910180546001600160a01b0319166001600160a01b0390921691909117905550505050505050505050565b60066020819052600091825260409091208054600582015492820180546001600160a01b03909216939291610ecb906116af565b80601f0160208091040260200160405190810160405280929190818152602001828054610ef7906116af565b8015610f445780601f10610f1957610100808354040283529160200191610f44565b820191906000526020600020905b815481529060010190602001808311610f2757829003601f168201915b5050505060078301546008909301549192916001600160a01b0316905085565b3360008181526004602052604081205490819003610fc4576001546001600160a01b03831660008181526005602052604080822093909355915190917f677d635040d8584acbbc0eb3244d8f1652af08622717401f429634781a3b376191a25b610fce3482611817565b6001600160a01b0390921660009081526004602052604090209190915550565b600081815260066020526040812060058101549091036110505760405162461bcd60e51b815260206004820152601760248201527f636f6d706c69616e7420646f65736e277420657869737400000000000000000060448201526064016107b2565b6000546005820154611062904361169c565b116110c15760405162461bcd60e51b815260206004820152602960248201527f636f6d706c69616e742063616e277420626520736574746c656420646f776e206044820152687269676874206e6f7760b81b60648201526084016107b2565b60008060005b6001840154811015611108578360030181815481106110e8576110e861163b565b9060005260206000200154836110fe9190611817565b92506001016110c7565b5060005b600284015481101561114d5783600401818154811061112d5761112d61163b565b9060005260206000200154826111439190611817565b915060010161110c565b506008830154600090611168906001600160a01b0316610970565b90506000816111778486611817565b6111819190611817565b60088601546001600160a01b03166000908152600460205260408120805492935084929091906111b290849061169c565b9091555050828411156112645760005b600186015481101561125e57848660030182815481106111e4576111e461163b565b9060005260206000200154836111fa9190611906565b611204919061182a565b6004600088600101848154811061121d5761121d61163b565b60009182526020808320909101546001600160a01b0316835282019290925260400181208054909190611251908490611817565b90915550506001016111c2565b50611305565b60005b600286015481101561130357848660040182815481106112895761128961163b565b90600052602060002001548361129f9190611906565b6112a9919061182a565b600460008860020184815481106112c2576112c261163b565b60009182526020808320909101546001600160a01b03168352820192909252604001812080549091906112f6908490611817565b9091555050600101611267565b505b505050505050565b6009602052816000526040600020818154811061132957600080fd5b90600052602060002001600091509150505481565b82805482825590600052602060002090810192821561137e5760005260206000209182015b8281111561137e578254825591600101919060010190611363565b5061138a92915061141e565b5090565b82805482825590600052602060002090810192821561137e579160200282015b8281111561137e57825182546001600160a01b0319166001600160a01b039091161782556020909201916001909101906113ae565b82805482825590600052602060002090810192821561137e579160200282015b8281111561137e578251825591602001919060010190611403565b5b8082111561138a576000815560010161141f565b80356001600160a01b038116811461144a57600080fd5b919050565b60006020828403121561146157600080fd5b61146a82611433565b9392505050565b6000806040838503121561148457600080fd5b823591506020830135801515811461149b57600080fd5b809150509250929050565b600080604083850312156114b957600080fd5b6114c283611433565b946020939093013593505050565b6000602082840312156114e257600080fd5b5035919050565b634e487b7160e01b600052604160045260246000fd5b6000806040838503121561151257600080fd5b82359150602083013567ffffffffffffffff8082111561153157600080fd5b818501915085601f83011261154557600080fd5b813581811115611557576115576114e9565b604051601f8201601f19908116603f0116810190838211818310171561157f5761157f6114e9565b8160405282815288602084870101111561159857600080fd5b8260208601602083013760006020848301015280955050505050509250929050565b60005b838110156115d55781810151838201526020016115bd565b50506000910152565b600060018060a01b03808816835286602084015260a0604084015285518060a08501526116128160c0860160208a016115ba565b60c0601f19601f8301168501019250508460608401528084166080840152509695505050505050565b634e487b7160e01b600052603260045260246000fd5b600082516116638184602087016115ba565b9190910192915050565b60006020828403121561167f57600080fd5b5051919050565b634e487b7160e01b600052601160045260246000fd5b818103818111156109a3576109a3611686565b600181811c908216806116c357607f821691505b6020821081036116e357634e487b7160e01b600052602260045260246000fd5b50919050565b601f821115611731576000816000526020600020601f850160051c810160208610156117125750805b601f850160051c820191505b818110156113055782815560010161171e565b505050565b818103611741575050565b61174b82546116af565b67ffffffffffffffff811115611763576117636114e9565b6117778161177184546116af565b846116e9565b6000601f8211600181146117ab57600083156117935750848201545b600019600385901b1c1916600184901b178455611810565b600085815260209020601f19841690600086815260209020845b838110156117e557828601548255600195860195909101906020016117c5565b50858310156118035781850154600019600388901b60f8161c191681555b50505060018360011b0184555b5050505050565b808201808211156109a3576109a3611686565b60008261184757634e487b7160e01b600052601260045260246000fd5b500490565b815167ffffffffffffffff811115611866576118666114e9565b6118748161177184546116af565b602080601f8311600181146118a957600084156118915750858301515b600019600386901b1c1916600185901b178555611305565b600085815260208120601f198616915b828110156118d8578886015182559484019460019091019084016118b9565b50858210156118f65787850151600019600388901b60f8161c191681555b5050505050600190811b01905550565b80820281158282048414176109a3576109a361168656fea26469706673582212207f3576feecc40b3b13ffebd06a72dcaaf1471f1193f5594cda51b0eddcd0a4a464736f6c63430008180033",
  "linkReferences": {},
  "deployedLinkReferences": {}
}