{
  "_format": "hh-sol-artifact-1",
  "contractName": "TrueMatch",
  "sourceName": "contracts/TrueMatch.sol",
  "abi": [
    {
      "inputs": [
        {
          "internalType": "uint256",
          "name": "_compliantValidPeriod",
          "type": "uint256"
        },
        {
          "internalType": "uint256",
          "name": "_initialScore",
          "type": "uint256"
        },
        {
          "internalType": "uint256",
          "name": "_factorA",
          "type": "uint256"
        },
        {
          "internalType": "uint256",
          "name": "_factorB",
          "type": "uint256"
        }
      ],
      "stateMutability": "nonpayable",
      "type": "constructor"
    },
    {
      "anonymous": false,
      "inputs": [
        {
          "indexed": true,
          "internalType": "address",
          "name": "userOne",
          "type": "address"
        },
        {
          "indexed": false,
          "internalType": "address",
          "name": "userTwo",
          "type": "address"
        },
        {
          "indexed": false,
          "internalType": "bytes32",
          "name": "matchId",
          "type": "bytes32"
        }
      ],
      "name": "MatchCreation",
      "type": "event"
    },
    {
      "anonymous": false,
      "inputs": [
        {
          "indexed": true,
          "internalType": "address",
          "name": "user",
          "type": "address"
        }
      ],
      "name": "UserCreation",
      "type": "event"
    },
    {
      "inputs": [],
      "name": "addBalance",
      "outputs": [],
      "stateMutability": "payable",
      "type": "function"
    },
    {
      "inputs": [
        {
          "internalType": "address",
          "name": "",
          "type": "address"
        }
      ],
      "name": "balances",
      "outputs": [
        {
          "internalType": "uint256",
          "name": "",
          "type": "uint256"
        }
      ],
      "stateMutability": "view",
      "type": "function"
    },
    {
      "inputs": [],
      "name": "compliantValidPeriod",
      "outputs": [
        {
          "internalType": "uint256",
          "name": "",
          "type": "uint256"
        }
      ],
      "stateMutability": "view",
      "type": "function"
    },
    {
      "inputs": [
        {
          "internalType": "bytes32",
          "name": "",
          "type": "bytes32"
        }
      ],
      "name": "compliants",
      "outputs": [
        {
          "internalType": "address",
          "name": "submitter",
          "type": "address"
        },
        {
          "internalType": "uint256",
          "name": "blockNum",
          "type": "uint256"
        },
        {
          "internalType": "string",
          "name": "desc",
          "type": "string"
        },
        {
          "internalType": "bytes32",
          "name": "matchId",
          "type": "bytes32"
        }
      ],
      "stateMutability": "view",
      "type": "function"
    },
    {
      "inputs": [],
      "name": "factorA",
      "outputs": [
        {
          "internalType": "uint256",
          "name": "",
          "type": "uint256"
        }
      ],
      "stateMutability": "view",
      "type": "function"
    },
    {
      "inputs": [],
      "name": "factorB",
      "outputs": [
        {
          "internalType": "uint256",
          "name": "",
          "type": "uint256"
        }
      ],
      "stateMutability": "view",
      "type": "function"
    },
    {
      "inputs": [
        {
          "internalType": "address",
          "name": "user",
          "type": "address"
        }
      ],
      "name": "getBalance",
      "outputs": [
        {
          "internalType": "uint256",
          "name": "",
          "type": "uint256"
        }
      ],
      "stateMutability": "view",
      "type": "function"
    },
    {
      "inputs": [
        {
          "internalType": "address",
          "name": "user",
          "type": "address"
        }
      ],
      "name": "getScore",
      "outputs": [
        {
          "internalType": "uint256",
          "name": "",
          "type": "uint256"
        }
      ],
      "stateMutability": "view",
      "type": "function"
    },
    {
      "inputs": [],
      "name": "initialScore",
      "outputs": [
        {
          "internalType": "uint256",
          "name": "",
          "type": "uint256"
        }
      ],
      "stateMutability": "view",
      "type": "function"
    },
    {
      "inputs": [
        {
          "internalType": "bytes32",
          "name": "",
          "type": "bytes32"
        }
      ],
      "name": "matches",
      "outputs": [
        {
          "internalType": "address",
          "name": "userFirst",
          "type": "address"
        },
        {
          "internalType": "address",
          "name": "userSecond",
          "type": "address"
        },
        {
          "internalType": "bytes32",
          "name": "matchId",
          "type": "bytes32"
        },
        {
          "internalType": "uint256",
          "name": "blockNum",
          "type": "uint256"
        }
      ],
      "stateMutability": "view",
      "type": "function"
    },
    {
      "inputs": [
        {
          "internalType": "address",
          "name": "",
          "type": "address"
        },
        {
          "internalType": "uint256",
          "name": "",
          "type": "uint256"
        }
      ],
      "name": "pendingMatches",
      "outputs": [
        {
          "internalType": "address",
          "name": "receiver",
          "type": "address"
        },
        {
          "internalType": "uint256",
          "name": "blockNum",
          "type": "uint256"
        }
      ],
      "stateMutability": "view",
      "type": "function"
    },
    {
      "inputs": [
        {
          "internalType": "address",
          "name": "",
          "type": "address"
        }
      ],
      "name": "scores",
      "outputs": [
        {
          "internalType": "uint256",
          "name": "",
          "type": "uint256"
        }
      ],
      "stateMutability": "view",
      "type": "function"
    },
    {
      "inputs": [
        {
          "internalType": "address",
          "name": "receiver",
          "type": "address"
        }
      ],
      "name": "sendMatchRequest",
      "outputs": [
        {
          "internalType": "bytes32",
          "name": "",
          "type": "bytes32"
        }
      ],
      "stateMutability": "nonpayable",
      "type": "function"
    },
    {
      "inputs": [
        {
          "internalType": "bytes32",
          "name": "matchId",
          "type": "bytes32"
        },
        {
          "internalType": "string",
          "name": "desc",
          "type": "string"
        }
      ],
      "name": "sendcompliants",
      "outputs": [],
      "stateMutability": "nonpayable",
      "type": "function"
    },
    {
      "inputs": [
        {
          "internalType": "address",
          "name": "",
          "type": "address"
        },
        {
          "internalType": "uint256",
          "name": "",
          "type": "uint256"
        }
      ],
      "name": "userMatches",
      "outputs": [
        {
          "internalType": "bytes32",
          "name": "",
          "type": "bytes32"
        }
      ],
      "stateMutability": "view",
      "type": "function"
    },
    {
      "inputs": [
        {
          "internalType": "bytes32",
          "name": "matchId",
          "type": "bytes32"
        },
        {
          "internalType": "bool",
          "name": "voteForSupport",
          "type": "bool"
        }
      ],
      "name": "verdictcompliant",
      "outputs": [],
      "stateMutability": "payable",
      "type": "function"
    }
  ],
  "bytecode": "0x608060405234801561001057600080fd5b506040516115cd3803806115cd83398101604081905261002f91610046565b60009390935560019190915560025560035561007c565b6000806000806080858703121561005c57600080fd5b505082516020840151604085015160609095015191969095509092509050565b6115428061008b6000396000f3fe6080604052600436106100f35760003560e01c80637fcf78691161008a578063b163cc3811610059578063b163cc38146102fb578063d47875d014610303578063f8b2cb4f14610339578063fd7fef9c1461036f57600080fd5b80637fcf78691461021c5780639fe9ada314610231578063a20f9b19146102ab578063a245119c146102cb57600080fd5b80636247fe93116100c65780636247fe9314610184578063676e79b21461019a578063748a6c9a146101d957806376dd110f146101ef57600080fd5b80631e7878af146100f857806326f54c4d1461012b57806327e235e314610141578063541e14cd1461016e575b600080fd5b34801561010457600080fd5b50610118610113366004611057565b61038f565b6040519081526020015b60405180910390f35b34801561013757600080fd5b5061011860025481565b34801561014d57600080fd5b5061011861015c366004611057565b60046020526000908152604090205481565b34801561017a57600080fd5b5061011860015481565b34801561019057600080fd5b5061011860005481565b3480156101a657600080fd5b506101ba6101b5366004611079565b610711565b604080516001600160a01b039093168352602083019190915201610122565b3480156101e557600080fd5b5061011860035481565b3480156101fb57600080fd5b5061011861020a366004611057565b60056020526000908152604090205481565b61022f61022a3660046110a3565b610757565b005b34801561023d57600080fd5b5061028061024c3660046110d8565b60086020526000908152604090208054600182015460028301546003909301546001600160a01b0392831693919092169184565b604080516001600160a01b039586168152949093166020850152918301526060820152608001610122565b3480156102b757600080fd5b5061022f6102c6366004611107565b61091c565b3480156102d757600080fd5b506102eb6102e63660046110d8565b610dce565b60405161012294939291906111e6565b61022f610e8b565b34801561030f57600080fd5b5061011861031e366004611057565b6001600160a01b031660009081526005602052604090205490565b34801561034557600080fd5b50610118610354366004611057565b6001600160a01b031660009081526004602052604090205490565b34801561037b57600080fd5b5061011861038a366004611079565b610f15565b33600081815260046020908152604080832054600590925282205460035492939284916103bb9161124d565b6002546103c89190611266565b9050808210156103d757600080fd5b6001600160a01b03851660009081526007602090815260408083208054825181850281018501909352808352339493849084015b82821015610453576000848152602090819020604080518082019091526002850290910180546001600160a01b0316825260019081015482840152908352909201910161040b565b50505050905060005b815181101561069f57826001600160a01b031682828151811061048157610481611288565b6020026020010151600001516001600160a01b031603610697578181815181106104ad576104ad611288565b602002602001016104da604051806040016040528060006001600160a01b03168152602001600081525090565b9052604080513360208201526001600160a01b038a169181019190915243606082015260009060029060800160408051601f19818403018152908290526105209161129e565b602060405180830381855afa15801561053d573d6000803e3d6000fd5b5050506040513d601f19601f8201168201806040525081019061056091906112ba565b604080516080810182526001600160a01b038781168083528d82166020808501828152858701888152436060880190815260008a815260088552898120985189549089166001600160a01b0319918216178a5593516001808b01805492909a16919095161790975590516002880155516003909601959095558284526009815285842080548087018255908552818520018790558184528584208054958601815584529283902090930185905583519283529082018490529293507f504d843199032015e6b3fb9c84bd1d1009bbcf264b8a4f64ca5325229ae70152910160405180910390a2604080516001600160a01b038681168252602082018490528b16917f504d843199032015e6b3fb9c84bd1d1009bbcf264b8a4f64ca5325229ae70152910160405180910390a2965061070992505050565b60010161045c565b50506040805180820182526001600160a01b0388811682524360208084019182529482166000908152600786529384208054600180820183559186529585209351600290960290930180546001600160a01b03191695909216949094178155925192019190915593505b505050919050565b6007602052816000526040600020818154811061072d57600080fd5b6000918252602090912060029091020180546001909101546001600160a01b039091169250905082565b60008281526006602052604081209054600582015461077690436112d3565b11156107d35760405162461bcd60e51b815260206004820152602160248201527f74686520636f6d706c69616e742069736e27742076616c696420616e796d6f726044820152606560f81b60648201526084015b60405180910390fd5b33348315610825576001838101805480830182556000918252602080832090910180546001600160a01b0319166001600160a01b0387161790556003860180549384018155825290200181905561086c565b600283018054600180820183556000928352602080842090920180546001600160a01b0319166001600160a01b038716179055600486018054918201815583529120018190555b6000858152600660205260409020835481546001600160a01b0319166001600160a01b03909116178155600180850180548693926108ad9290840191610f46565b50600282810180546108c29284019190610f46565b50600382810180546108d79284019190610f46565b50600482810180546108ec9284019190610f46565b50600582015481600501556006820181600601908161090b9190611371565b506007918201549101555050505050565b600082815260086020908152604091829020825160808101845281546001600160a01b03908116808352600184015490911693820193909352600282015493810193909352600301546060830152339081148061098e5750806001600160a01b031682602001516001600160a01b0316145b610a005760405162461bcd60e51b815260206004820152603c60248201527f63616e2774207375626d697420636f6d706c69616e7420746f2061206d61746360448201527f68207468617420646f65736e27742062656c6f6e6720746f20796f750000000060648201526084016107ca565b600084815260066020908152604080832081516101008101835281546001600160a01b031681526001820180548451818702810187019095528085529194929385840193909290830182828015610a8057602002820191906000526020600020905b81546001600160a01b03168152600190910190602001808311610a62575b5050505050815260200160028201805480602002602001604051908101604052809291908181526020018280548015610ae257602002820191906000526020600020905b81546001600160a01b03168152600190910190602001808311610ac4575b5050505050815260200160038201805480602002602001604051908101604052809291908181526020018280548015610b3a57602002820191906000526020600020905b815481526020019060010190808311610b26575b5050505050815260200160048201805480602002602001604051908101604052809291908181526020018280548015610b9257602002820191906000526020600020905b815481526020019060010190808311610b7e575b5050505050815260200160058201548152602001600682018054610bb5906112e6565b80601f0160208091040260200160405190810160405280929190818152602001828054610be1906112e6565b8015610c2e5780601f10610c0357610100808354040283529160200191610c2e565b820191906000526020600020905b815481529060010190602001808311610c1157829003601f168201915b505050505081526020016007820154815250509050816001600160a01b031681600001516001600160a01b031603610cb35760405162461bcd60e51b815260206004820152602260248201527f63616e2774207375626d6974206475706c69636174656420636f6d706c69616e604482015261747360f01b60648201526084016107ca565b60408051610100810182526001600160a01b03848116825260606020808401828152848601839052828501839052608085018390524360a086015260c085018a905260e085018b905260008b81526006835295909520845181546001600160a01b0319169416939093178355935180519194859485948594919384939192610d419260018501920190610f96565b5060408201518051610d5d916002840191602090910190610f96565b5060608201518051610d79916003840191602090910190610feb565b5060808201518051610d95916004840191602090910190610feb565b5060a0820151600582015560c08201516006820190610db49082611452565b5060e0820151816007015590505050505050505050505050565b60066020819052600091825260409091208054600582015492820180546001600160a01b03909216939291610e02906112e6565b80601f0160208091040260200160405190810160405280929190818152602001828054610e2e906112e6565b8015610e7b5780601f10610e5057610100808354040283529160200191610e7b565b820191906000526020600020905b815481529060010190602001808311610e5e57829003601f168201915b5050505050908060070154905084565b3360008181526004602052604081205490819003610eeb576001546001600160a01b03831660008181526005602052604080822093909355915190917f677d635040d8584acbbc0eb3244d8f1652af08622717401f429634781a3b376191a25b610ef5348261124d565b6001600160a01b0390921660009081526004602052604090209190915550565b60096020528160005260406000208181548110610f3157600080fd5b90600052602060002001600091509150505481565b828054828255906000526020600020908101928215610f865760005260206000209182015b82811115610f86578254825591600101919060010190610f6b565b50610f92929150611026565b5090565b828054828255906000526020600020908101928215610f86579160200282015b82811115610f8657825182546001600160a01b0319166001600160a01b03909116178255602090920191600190910190610fb6565b828054828255906000526020600020908101928215610f86579160200282015b82811115610f8657825182559160200191906001019061100b565b5b80821115610f925760008155600101611027565b80356001600160a01b038116811461105257600080fd5b919050565b60006020828403121561106957600080fd5b6110728261103b565b9392505050565b6000806040838503121561108c57600080fd5b6110958361103b565b946020939093013593505050565b600080604083850312156110b657600080fd5b82359150602083013580151581146110cd57600080fd5b809150509250929050565b6000602082840312156110ea57600080fd5b5035919050565b634e487b7160e01b600052604160045260246000fd5b6000806040838503121561111a57600080fd5b82359150602083013567ffffffffffffffff8082111561113957600080fd5b818501915085601f83011261114d57600080fd5b81358181111561115f5761115f6110f1565b604051601f8201601f19908116603f01168101908382118183101715611187576111876110f1565b816040528281528860208487010111156111a057600080fd5b8260208601602083013760006020848301015280955050505050509250929050565b60005b838110156111dd5781810151838201526020016111c5565b50506000910152565b60018060a01b038516815283602082015260806040820152600083518060808401526112198160a08501602088016111c2565b606083019390935250601f91909101601f19160160a0019392505050565b634e487b7160e01b600052601160045260246000fd5b8082018082111561126057611260611237565b92915050565b60008261128357634e487b7160e01b600052601260045260246000fd5b500490565b634e487b7160e01b600052603260045260246000fd5b600082516112b08184602087016111c2565b9190910192915050565b6000602082840312156112cc57600080fd5b5051919050565b8181038181111561126057611260611237565b600181811c908216806112fa57607f821691505b60208210810361131a57634e487b7160e01b600052602260045260246000fd5b50919050565b601f82111561136c576000816000526020600020601f850160051c810160208610156113495750805b601f850160051c820191505b8181101561136857828155600101611355565b5050505b505050565b81810361137c575050565b61138682546112e6565b67ffffffffffffffff81111561139e5761139e6110f1565b6113b2816113ac84546112e6565b84611320565b6000601f8211600181146113e657600083156113ce5750848201545b600019600385901b1c1916600184901b17845561144b565b600085815260209020601f19841690600086815260209020845b838110156114205782860154825560019586019590910190602001611400565b508583101561143e5781850154600019600388901b60f8161c191681555b50505060018360011b0184555b5050505050565b815167ffffffffffffffff81111561146c5761146c6110f1565b61147a816113ac84546112e6565b602080601f8311600181146114af57600084156114975750858301515b600019600386901b1c1916600185901b178555611368565b600085815260208120601f198616915b828110156114de578886015182559484019460019091019084016114bf565b50858210156114fc5787850151600019600388901b60f8161c191681555b5050505050600190811b0190555056fea26469706673582212203b58036e55bfb01ba93942480b9ca770c451c951294098a06aeb4feceb9fe6ab64736f6c63430008180033",
  "linkReferences": {},
  "deployedLinkReferences": {}
}