{
  "_format": "hh-sol-artifact-1",
  "contractName": "TrueMatch",
  "sourceName": "contracts/TrueMatch.sol",
  "abi": [
    {
      "inputs": [
        {
          "internalType": "uint256",
          "name": "_complaintValidPeriod",
          "type": "uint256"
        },
        {
          "internalType": "uint256",
          "name": "_initialScore",
          "type": "uint256"
        },
        {
          "internalType": "uint256",
          "name": "_factorA",
          "type": "uint256"
        },
        {
          "internalType": "uint256",
          "name": "_factorB",
          "type": "uint256"
        }
      ],
      "stateMutability": "nonpayable",
      "type": "constructor"
    },
    {
      "anonymous": false,
      "inputs": [
        {
          "indexed": true,
          "internalType": "address",
          "name": "userOne",
          "type": "address"
        },
        {
          "indexed": false,
          "internalType": "address",
          "name": "userTwo",
          "type": "address"
        },
        {
          "indexed": false,
          "internalType": "bytes32",
          "name": "matchId",
          "type": "bytes32"
        }
      ],
      "name": "MatchCreation",
      "type": "event"
    },
    {
      "anonymous": false,
      "inputs": [
        {
          "indexed": true,
          "internalType": "address",
          "name": "user",
          "type": "address"
        }
      ],
      "name": "UserCreation",
      "type": "event"
    },
    {
      "inputs": [],
      "name": "addBalance",
      "outputs": [],
      "stateMutability": "payable",
      "type": "function"
    },
    {
      "inputs": [
        {
          "internalType": "address",
          "name": "",
          "type": "address"
        }
      ],
      "name": "balances",
      "outputs": [
        {
          "internalType": "uint256",
          "name": "",
          "type": "uint256"
        }
      ],
      "stateMutability": "view",
      "type": "function"
    },
    {
      "inputs": [],
      "name": "complaintValidPeriod",
      "outputs": [
        {
          "internalType": "uint256",
          "name": "",
          "type": "uint256"
        }
      ],
      "stateMutability": "view",
      "type": "function"
    },
    {
      "inputs": [
        {
          "internalType": "bytes32",
          "name": "",
          "type": "bytes32"
        }
      ],
      "name": "complaints",
      "outputs": [
        {
          "internalType": "address",
          "name": "submitter",
          "type": "address"
        },
        {
          "internalType": "uint256",
          "name": "blocknumber",
          "type": "uint256"
        },
        {
          "internalType": "bytes32",
          "name": "descHash",
          "type": "bytes32"
        },
        {
          "internalType": "bytes32",
          "name": "matchId",
          "type": "bytes32"
        }
      ],
      "stateMutability": "view",
      "type": "function"
    },
    {
      "inputs": [],
      "name": "factorA",
      "outputs": [
        {
          "internalType": "uint256",
          "name": "",
          "type": "uint256"
        }
      ],
      "stateMutability": "view",
      "type": "function"
    },
    {
      "inputs": [],
      "name": "factorB",
      "outputs": [
        {
          "internalType": "uint256",
          "name": "",
          "type": "uint256"
        }
      ],
      "stateMutability": "view",
      "type": "function"
    },
    {
      "inputs": [
        {
          "internalType": "address",
          "name": "user",
          "type": "address"
        }
      ],
      "name": "getBalance",
      "outputs": [
        {
          "internalType": "uint256",
          "name": "",
          "type": "uint256"
        }
      ],
      "stateMutability": "view",
      "type": "function"
    },
    {
      "inputs": [
        {
          "internalType": "address",
          "name": "user",
          "type": "address"
        }
      ],
      "name": "getScore",
      "outputs": [
        {
          "internalType": "uint256",
          "name": "",
          "type": "uint256"
        }
      ],
      "stateMutability": "view",
      "type": "function"
    },
    {
      "inputs": [],
      "name": "initialScore",
      "outputs": [
        {
          "internalType": "uint256",
          "name": "",
          "type": "uint256"
        }
      ],
      "stateMutability": "view",
      "type": "function"
    },
    {
      "inputs": [
        {
          "internalType": "bytes32",
          "name": "",
          "type": "bytes32"
        }
      ],
      "name": "matches",
      "outputs": [
        {
          "internalType": "address",
          "name": "userFirst",
          "type": "address"
        },
        {
          "internalType": "address",
          "name": "userSecond",
          "type": "address"
        },
        {
          "internalType": "bytes32",
          "name": "matchId",
          "type": "bytes32"
        },
        {
          "internalType": "uint256",
          "name": "blockNum",
          "type": "uint256"
        }
      ],
      "stateMutability": "view",
      "type": "function"
    },
    {
      "inputs": [
        {
          "internalType": "address",
          "name": "",
          "type": "address"
        },
        {
          "internalType": "uint256",
          "name": "",
          "type": "uint256"
        }
      ],
      "name": "pendingMatches",
      "outputs": [
        {
          "internalType": "address",
          "name": "receiver",
          "type": "address"
        },
        {
          "internalType": "uint256",
          "name": "blockNum",
          "type": "uint256"
        }
      ],
      "stateMutability": "view",
      "type": "function"
    },
    {
      "inputs": [
        {
          "internalType": "address",
          "name": "",
          "type": "address"
        }
      ],
      "name": "scores",
      "outputs": [
        {
          "internalType": "uint256",
          "name": "",
          "type": "uint256"
        }
      ],
      "stateMutability": "view",
      "type": "function"
    },
    {
      "inputs": [
        {
          "internalType": "address",
          "name": "receiver",
          "type": "address"
        }
      ],
      "name": "sendMatchRequest",
      "outputs": [
        {
          "internalType": "bytes32",
          "name": "",
          "type": "bytes32"
        }
      ],
      "stateMutability": "nonpayable",
      "type": "function"
    }
  ],
  "bytecode": "0x608060405234801561001057600080fd5b50604051610a3c380380610a3c83398101604081905261002f91610046565b60009390935560019190915560025560035561007c565b6000806000806080858703121561005c57600080fd5b505082516020840151604085015160609095015191969095509092509050565b6109b18061008b6000396000f3fe6080604052600436106100c25760003560e01c806376dd110f1161007f578063b163cc3811610059578063b163cc3814610265578063d47875d01461026f578063e307bf2a146102a5578063f8b2cb4f1461031b57600080fd5b806376dd110f146101a85780638b86c032146101d55780639fe9ada3146101eb57600080fd5b80631e7878af146100c757806326f54c4d146100fa57806327e235e314610110578063541e14cd1461013d578063676e79b214610153578063748a6c9a14610192575b600080fd5b3480156100d357600080fd5b506100e76100e236600461082b565b610351565b6040519081526020015b60405180910390f35b34801561010657600080fd5b506100e760025481565b34801561011c57600080fd5b506100e761012b36600461082b565b60046020526000908152604090205481565b34801561014957600080fd5b506100e760015481565b34801561015f57600080fd5b5061017361016e36600461084d565b6106d4565b604080516001600160a01b0390931683526020830191909152016100f1565b34801561019e57600080fd5b506100e760035481565b3480156101b457600080fd5b506100e76101c336600461082b565b60056020526000908152604090205481565b3480156101e157600080fd5b506100e760005481565b3480156101f757600080fd5b5061023a610206366004610877565b60086020526000908152604090208054600182015460028301546003909301546001600160a01b0392831693919092169184565b604080516001600160a01b0395861681529490931660208501529183015260608201526080016100f1565b61026d61071a565b005b34801561027b57600080fd5b506100e761028a36600461082b565b6001600160a01b031660009081526005602052604090205490565b3480156102b157600080fd5b506102f16102c0366004610877565b60066020526000908152604090208054600382015460048301546005909301546001600160a01b0390921692909184565b604080516001600160a01b03909516855260208501939093529183015260608201526080016100f1565b34801561032757600080fd5b506100e761033636600461082b565b6001600160a01b031660009081526004602052604090205490565b336000818152600460209081526040808320546005909252822054600354929392849161037d91610890565b60025461038a91906108b7565b90508082101561039957600080fd5b6001600160a01b03851660009081526007602090815260408083208054825181850281018501909352808352339493849084015b82821015610415576000848152602090819020604080518082019091526002850290910180546001600160a01b031682526001908101548284015290835290920191016103cd565b50505050905060005b815181101561066257826001600160a01b0316828281518110610443576104436108d9565b6020026020010151600001516001600160a01b03160361065a5781818151811061046f5761046f6108d9565b6020026020010161049c604051806040016040528060006001600160a01b03168152602001600081525090565b9052604080513360208201526001600160a01b038a169181019190915243606082015260009060029060800160408051601f19818403018152908290526104e291610913565b602060405180830381855afa1580156104ff573d6000803e3d6000fd5b5050506040513d601f19601f82011682018060405250810190610522919061092f565b604080516080810182526001600160a01b0380881682528c8116602080840191825283850186815243606086019081526000888152600880855290889020965187549087166001600160a01b03199182161788559451600188018054919097169516949094179094555160028501559151600390930192909255825180840190935290825267676574206865726560c01b908201529091506105c3906107a4565b604080516001600160a01b038b81168252602082018490528616917f504d843199032015e6b3fb9c84bd1d1009bbcf264b8a4f64ca5325229ae70152910160405180910390a2604080516001600160a01b038681168252602082018490528b16917f504d843199032015e6b3fb9c84bd1d1009bbcf264b8a4f64ca5325229ae70152910160405180910390a296506106cc92505050565b60010161041e565b50506040805180820182526001600160a01b0388811682524360208084019182529482166000908152600786529384208054600180820183559186529585209351600290960290930180546001600160a01b03191695909216949094178155925192019190915593505b505050919050565b600760205281600052604060002081815481106106f057600080fd5b6000918252602090912060029091020180546001909101546001600160a01b039091169250905082565b336000818152600460205260408120549081900361077a576001546001600160a01b03831660008181526005602052604080822093909355915190917f677d635040d8584acbbc0eb3244d8f1652af08622717401f429634781a3b376191a25b6107843482610890565b6001600160a01b0390921660009081526004602052604090209190915550565b6107e7816040516024016107b89190610948565b60408051601f198184030181529190526020810180516001600160e01b031663104c13eb60e21b1790526107ea565b50565b6107e78160006a636f6e736f6c652e6c6f679050600080835160208501845afa505050565b80356001600160a01b038116811461082657600080fd5b919050565b60006020828403121561083d57600080fd5b6108468261080f565b9392505050565b6000806040838503121561086057600080fd5b6108698361080f565b946020939093013593505050565b60006020828403121561088957600080fd5b5035919050565b808201808211156108b157634e487b7160e01b600052601160045260246000fd5b92915050565b6000826108d457634e487b7160e01b600052601260045260246000fd5b500490565b634e487b7160e01b600052603260045260246000fd5b60005b8381101561090a5781810151838201526020016108f2565b50506000910152565b600082516109258184602087016108ef565b9190910192915050565b60006020828403121561094157600080fd5b5051919050565b60208152600082518060208401526109678160408501602087016108ef565b601f01601f1916919091016040019291505056fea2646970667358221220c3a198228e8fd9950baa99ef755d0e12802abcafac59f814ba918777084ca12e64736f6c63430008180033",
  "linkReferences": {},
  "deployedLinkReferences": {}
}