{
  "_format": "hh-sol-artifact-1",
  "contractName": "TrueMatch",
  "sourceName": "contracts/TrueMatch.sol",
  "abi": [
    {
      "inputs": [
        {
          "internalType": "uint256",
          "name": "_compliantValidPeriod",
          "type": "uint256"
        },
        {
          "internalType": "uint256",
          "name": "_initialScore",
          "type": "uint256"
        },
        {
          "internalType": "uint256",
          "name": "_factorA",
          "type": "uint256"
        },
        {
          "internalType": "uint256",
          "name": "_factorB",
          "type": "uint256"
        }
      ],
      "stateMutability": "nonpayable",
      "type": "constructor"
    },
    {
      "anonymous": false,
      "inputs": [
        {
          "indexed": true,
          "internalType": "address",
          "name": "userOne",
          "type": "address"
        },
        {
          "indexed": false,
          "internalType": "address",
          "name": "userTwo",
          "type": "address"
        },
        {
          "indexed": false,
          "internalType": "bytes32",
          "name": "matchId",
          "type": "bytes32"
        }
      ],
      "name": "MatchCreation",
      "type": "event"
    },
    {
      "anonymous": false,
      "inputs": [
        {
          "indexed": true,
          "internalType": "address",
          "name": "user",
          "type": "address"
        }
      ],
      "name": "UserCreation",
      "type": "event"
    },
    {
      "inputs": [],
      "name": "addBalance",
      "outputs": [],
      "stateMutability": "payable",
      "type": "function"
    },
    {
      "inputs": [
        {
          "internalType": "address",
          "name": "",
          "type": "address"
        }
      ],
      "name": "balances",
      "outputs": [
        {
          "internalType": "uint256",
          "name": "",
          "type": "uint256"
        }
      ],
      "stateMutability": "view",
      "type": "function"
    },
    {
      "inputs": [],
      "name": "compliantValidPeriod",
      "outputs": [
        {
          "internalType": "uint256",
          "name": "",
          "type": "uint256"
        }
      ],
      "stateMutability": "view",
      "type": "function"
    },
    {
      "inputs": [
        {
          "internalType": "bytes32",
          "name": "",
          "type": "bytes32"
        }
      ],
      "name": "compliants",
      "outputs": [
        {
          "internalType": "address",
          "name": "submitter",
          "type": "address"
        },
        {
          "internalType": "uint256",
          "name": "blockNum",
          "type": "uint256"
        },
        {
          "internalType": "string",
          "name": "desc",
          "type": "string"
        },
        {
          "internalType": "bytes32",
          "name": "matchId",
          "type": "bytes32"
        }
      ],
      "stateMutability": "view",
      "type": "function"
    },
    {
      "inputs": [],
      "name": "factorA",
      "outputs": [
        {
          "internalType": "uint256",
          "name": "",
          "type": "uint256"
        }
      ],
      "stateMutability": "view",
      "type": "function"
    },
    {
      "inputs": [],
      "name": "factorB",
      "outputs": [
        {
          "internalType": "uint256",
          "name": "",
          "type": "uint256"
        }
      ],
      "stateMutability": "view",
      "type": "function"
    },
    {
      "inputs": [
        {
          "internalType": "address",
          "name": "user",
          "type": "address"
        }
      ],
      "name": "getBalance",
      "outputs": [
        {
          "internalType": "uint256",
          "name": "",
          "type": "uint256"
        }
      ],
      "stateMutability": "view",
      "type": "function"
    },
    {
      "inputs": [
        {
          "internalType": "address",
          "name": "user",
          "type": "address"
        }
      ],
      "name": "getScore",
      "outputs": [
        {
          "internalType": "uint256",
          "name": "",
          "type": "uint256"
        }
      ],
      "stateMutability": "view",
      "type": "function"
    },
    {
      "inputs": [],
      "name": "initialScore",
      "outputs": [
        {
          "internalType": "uint256",
          "name": "",
          "type": "uint256"
        }
      ],
      "stateMutability": "view",
      "type": "function"
    },
    {
      "inputs": [
        {
          "internalType": "bytes32",
          "name": "",
          "type": "bytes32"
        }
      ],
      "name": "matches",
      "outputs": [
        {
          "internalType": "address",
          "name": "userFirst",
          "type": "address"
        },
        {
          "internalType": "address",
          "name": "userSecond",
          "type": "address"
        },
        {
          "internalType": "bytes32",
          "name": "matchId",
          "type": "bytes32"
        },
        {
          "internalType": "uint256",
          "name": "blockNum",
          "type": "uint256"
        }
      ],
      "stateMutability": "view",
      "type": "function"
    },
    {
      "inputs": [
        {
          "internalType": "address",
          "name": "",
          "type": "address"
        },
        {
          "internalType": "uint256",
          "name": "",
          "type": "uint256"
        }
      ],
      "name": "pendingMatches",
      "outputs": [
        {
          "internalType": "address",
          "name": "receiver",
          "type": "address"
        },
        {
          "internalType": "uint256",
          "name": "blockNum",
          "type": "uint256"
        }
      ],
      "stateMutability": "view",
      "type": "function"
    },
    {
      "inputs": [
        {
          "internalType": "address",
          "name": "",
          "type": "address"
        }
      ],
      "name": "scores",
      "outputs": [
        {
          "internalType": "uint256",
          "name": "",
          "type": "uint256"
        }
      ],
      "stateMutability": "view",
      "type": "function"
    },
    {
      "inputs": [
        {
          "internalType": "address",
          "name": "receiver",
          "type": "address"
        }
      ],
      "name": "sendMatchRequest",
      "outputs": [
        {
          "internalType": "bytes32",
          "name": "",
          "type": "bytes32"
        }
      ],
      "stateMutability": "nonpayable",
      "type": "function"
    },
    {
      "inputs": [
        {
          "internalType": "bytes32",
          "name": "matchId",
          "type": "bytes32"
        },
        {
          "internalType": "string",
          "name": "desc",
          "type": "string"
        }
      ],
      "name": "sendcompliants",
      "outputs": [],
      "stateMutability": "nonpayable",
      "type": "function"
    },
    {
      "inputs": [
        {
          "internalType": "address",
          "name": "",
          "type": "address"
        },
        {
          "internalType": "uint256",
          "name": "",
          "type": "uint256"
        }
      ],
      "name": "userMatches",
      "outputs": [
        {
          "internalType": "bytes32",
          "name": "",
          "type": "bytes32"
        }
      ],
      "stateMutability": "view",
      "type": "function"
    },
    {
      "inputs": [
        {
          "internalType": "bytes32",
          "name": "matchId",
          "type": "bytes32"
        },
        {
          "internalType": "bool",
          "name": "voteForSupport",
          "type": "bool"
        }
      ],
      "name": "verdictcompliant",
      "outputs": [],
      "stateMutability": "payable",
      "type": "function"
    }
  ],
  "bytecode": "0x608060405234801561001057600080fd5b506040516115a43803806115a483398101604081905261002f91610046565b60009390935560019190915560025560035561007c565b6000806000806080858703121561005c57600080fd5b505082516020840151604085015160609095015191969095509092509050565b6115198061008b6000396000f3fe6080604052600436106100f35760003560e01c80637fcf78691161008a578063b163cc3811610059578063b163cc38146102fb578063d47875d014610303578063f8b2cb4f14610339578063fd7fef9c1461036f57600080fd5b80637fcf78691461021c5780639fe9ada314610231578063a20f9b19146102ab578063a245119c146102cb57600080fd5b80636247fe93116100c65780636247fe9314610184578063676e79b21461019a578063748a6c9a146101d957806376dd110f146101ef57600080fd5b80631e7878af146100f857806326f54c4d1461012b57806327e235e314610141578063541e14cd1461016e575b600080fd5b34801561010457600080fd5b5061011861011336600461110a565b61038f565b6040519081526020015b60405180910390f35b34801561013757600080fd5b5061011860025481565b34801561014d57600080fd5b5061011861015c36600461110a565b60046020526000908152604090205481565b34801561017a57600080fd5b5061011860015481565b34801561019057600080fd5b5061011860005481565b3480156101a657600080fd5b506101ba6101b536600461112c565b610711565b604080516001600160a01b039093168352602083019190915201610122565b3480156101e557600080fd5b5061011860035481565b3480156101fb57600080fd5b5061011861020a36600461110a565b60056020526000908152604090205481565b61022f61022a366004611156565b610757565b005b34801561023d57600080fd5b5061028061024c36600461118b565b60086020526000908152604090208054600182015460028301546003909301546001600160a01b0392831693919092169184565b604080516001600160a01b039586168152949093166020850152918301526060820152608001610122565b3480156102b757600080fd5b5061022f6102c63660046111ba565b610a0f565b3480156102d757600080fd5b506102eb6102e636600461118b565b610ec1565b6040516101229493929190611299565b61022f610f7e565b34801561030f57600080fd5b5061011861031e36600461110a565b6001600160a01b031660009081526005602052604090205490565b34801561034557600080fd5b5061011861035436600461110a565b6001600160a01b031660009081526004602052604090205490565b34801561037b57600080fd5b5061011861038a36600461112c565b611008565b33600081815260046020908152604080832054600590925282205460035492939284916103bb91611300565b6002546103c89190611319565b9050808210156103d757600080fd5b6001600160a01b03851660009081526007602090815260408083208054825181850281018501909352808352339493849084015b82821015610453576000848152602090819020604080518082019091526002850290910180546001600160a01b0316825260019081015482840152908352909201910161040b565b50505050905060005b815181101561069f57826001600160a01b03168282815181106104815761048161133b565b6020026020010151600001516001600160a01b031603610697578181815181106104ad576104ad61133b565b602002602001016104da604051806040016040528060006001600160a01b03168152602001600081525090565b9052604080513360208201526001600160a01b038a169181019190915243606082015260009060029060800160408051601f198184030181529082905261052091611351565b602060405180830381855afa15801561053d573d6000803e3d6000fd5b5050506040513d601f19601f82011682018060405250810190610560919061136d565b604080516080810182526001600160a01b038781168083528d82166020808501828152858701888152436060880190815260008a815260088552898120985189549089166001600160a01b0319918216178a5593516001808b01805492909a16919095161790975590516002880155516003909601959095558284526009815285842080548087018255908552818520018790558184528584208054958601815584529283902090930185905583519283529082018490529293507f504d843199032015e6b3fb9c84bd1d1009bbcf264b8a4f64ca5325229ae70152910160405180910390a2604080516001600160a01b038681168252602082018490528b16917f504d843199032015e6b3fb9c84bd1d1009bbcf264b8a4f64ca5325229ae70152910160405180910390a2965061070992505050565b60010161045c565b50506040805180820182526001600160a01b0388811682524360208084019182529482166000908152600786529384208054600180820183559186529585209351600290960290930180546001600160a01b03191695909216949094178155925192019190915593505b505050919050565b6007602052816000526040600020818154811061072d57600080fd5b6000918252602090912060029091020180546001909101546001600160a01b039091169250905082565b600082815260066020908152604080832081516101008101835281546001600160a01b0316815260018201805484518187028101870190955280855291949293858401939092908301828280156107d757602002820191906000526020600020905b81546001600160a01b031681526001909101906020018083116107b9575b505050505081526020016002820180548060200260200160405190810160405280929190818152602001828054801561083957602002820191906000526020600020905b81546001600160a01b0316815260019091019060200180831161081b575b505050505081526020016003820180548060200260200160405190810160405280929190818152602001828054801561089157602002820191906000526020600020905b81548152602001906001019080831161087d575b50505050508152602001600482018054806020026020016040519081016040528092919081815260200182805480156108e957602002820191906000526020600020905b8154815260200190600101908083116108d5575b505050505081526020016005820154815260200160068201805461090c90611386565b80601f016020809104026020016040519081016040528092919081815260200182805461093890611386565b80156109855780601f1061095a57610100808354040283529160200191610985565b820191906000526020600020905b81548152906001019060200180831161096857829003601f168201915b5050505050815260200160078201548152505090506000548160a00151436109ad91906113c0565b1115610a0a5760405162461bcd60e51b815260206004820152602160248201527f74686520636f6d706c69616e742069736e27742076616c696420616e796d6f726044820152606560f81b60648201526084015b60405180910390fd5b505050565b600082815260086020908152604091829020825160808101845281546001600160a01b039081168083526001840154909116938201939093526002820154938101939093526003015460608301523390811480610a815750806001600160a01b031682602001516001600160a01b0316145b610af35760405162461bcd60e51b815260206004820152603c60248201527f63616e2774207375626d697420636f6d706c69616e7420746f2061206d61746360448201527f68207468617420646f65736e27742062656c6f6e6720746f20796f75000000006064820152608401610a01565b600084815260066020908152604080832081516101008101835281546001600160a01b031681526001820180548451818702810187019095528085529194929385840193909290830182828015610b7357602002820191906000526020600020905b81546001600160a01b03168152600190910190602001808311610b55575b5050505050815260200160028201805480602002602001604051908101604052809291908181526020018280548015610bd557602002820191906000526020600020905b81546001600160a01b03168152600190910190602001808311610bb7575b5050505050815260200160038201805480602002602001604051908101604052809291908181526020018280548015610c2d57602002820191906000526020600020905b815481526020019060010190808311610c19575b5050505050815260200160048201805480602002602001604051908101604052809291908181526020018280548015610c8557602002820191906000526020600020905b815481526020019060010190808311610c71575b5050505050815260200160058201548152602001600682018054610ca890611386565b80601f0160208091040260200160405190810160405280929190818152602001828054610cd490611386565b8015610d215780601f10610cf657610100808354040283529160200191610d21565b820191906000526020600020905b815481529060010190602001808311610d0457829003601f168201915b505050505081526020016007820154815250509050816001600160a01b031681600001516001600160a01b031603610da65760405162461bcd60e51b815260206004820152602260248201527f63616e2774207375626d6974206475706c69636174656420636f6d706c69616e604482015261747360f01b6064820152608401610a01565b60408051610100810182526001600160a01b03848116825260606020808401828152848601839052828501839052608085018390524360a086015260c085018a905260e085018b905260008b81526006835295909520845181546001600160a01b0319169416939093178355935180519194859485948594919384939192610e349260018501920190611039565b5060408201518051610e50916002840191602090910190611039565b5060608201518051610e6c91600384019160209091019061109e565b5060808201518051610e8891600484019160209091019061109e565b5060a0820151600582015560c08201516006820190610ea79082611423565b5060e0820151816007015590505050505050505050505050565b60066020819052600091825260409091208054600582015492820180546001600160a01b03909216939291610ef590611386565b80601f0160208091040260200160405190810160405280929190818152602001828054610f2190611386565b8015610f6e5780601f10610f4357610100808354040283529160200191610f6e565b820191906000526020600020905b815481529060010190602001808311610f5157829003601f168201915b5050505050908060070154905084565b3360008181526004602052604081205490819003610fde576001546001600160a01b03831660008181526005602052604080822093909355915190917f677d635040d8584acbbc0eb3244d8f1652af08622717401f429634781a3b376191a25b610fe83482611300565b6001600160a01b0390921660009081526004602052604090209190915550565b6009602052816000526040600020818154811061102457600080fd5b90600052602060002001600091509150505481565b82805482825590600052602060002090810192821561108e579160200282015b8281111561108e57825182546001600160a01b0319166001600160a01b03909116178255602090920191600190910190611059565b5061109a9291506110d9565b5090565b82805482825590600052602060002090810192821561108e579160200282015b8281111561108e5782518255916020019190600101906110be565b5b8082111561109a57600081556001016110da565b80356001600160a01b038116811461110557600080fd5b919050565b60006020828403121561111c57600080fd5b611125826110ee565b9392505050565b6000806040838503121561113f57600080fd5b611148836110ee565b946020939093013593505050565b6000806040838503121561116957600080fd5b823591506020830135801515811461118057600080fd5b809150509250929050565b60006020828403121561119d57600080fd5b5035919050565b634e487b7160e01b600052604160045260246000fd5b600080604083850312156111cd57600080fd5b82359150602083013567ffffffffffffffff808211156111ec57600080fd5b818501915085601f83011261120057600080fd5b813581811115611212576112126111a4565b604051601f8201601f19908116603f0116810190838211818310171561123a5761123a6111a4565b8160405282815288602084870101111561125357600080fd5b8260208601602083013760006020848301015280955050505050509250929050565b60005b83811015611290578181015183820152602001611278565b50506000910152565b60018060a01b038516815283602082015260806040820152600083518060808401526112cc8160a0850160208801611275565b606083019390935250601f91909101601f19160160a0019392505050565b634e487b7160e01b600052601160045260246000fd5b80820180821115611313576113136112ea565b92915050565b60008261133657634e487b7160e01b600052601260045260246000fd5b500490565b634e487b7160e01b600052603260045260246000fd5b60008251611363818460208701611275565b9190910192915050565b60006020828403121561137f57600080fd5b5051919050565b600181811c9082168061139a57607f821691505b6020821081036113ba57634e487b7160e01b600052602260045260246000fd5b50919050565b81810381811115611313576113136112ea565b601f821115610a0a576000816000526020600020601f850160051c810160208610156113fc5750805b601f850160051c820191505b8181101561141b57828155600101611408565b505050505050565b815167ffffffffffffffff81111561143d5761143d6111a4565b6114518161144b8454611386565b846113d3565b602080601f831160018114611486576000841561146e5750858301515b600019600386901b1c1916600185901b17855561141b565b600085815260208120601f198616915b828110156114b557888601518255948401946001909101908401611496565b50858210156114d35787850151600019600388901b60f8161c191681555b5050505050600190811b0190555056fea2646970667358221220969de2638e89da9b112fbe3d24632cff9167aa35d0062d9edf5c253c82e5966664736f6c63430008180033",
  "linkReferences": {},
  "deployedLinkReferences": {}
}