{
  "_format": "hh-sol-artifact-1",
  "contractName": "SmartDating",
  "sourceName": "contracts/TrueDating.sol",
  "abi": [
    {
      "inputs": [
        {
          "internalType": "uint256",
          "name": "_complaintValidPeriod",
          "type": "uint256"
        }
      ],
      "stateMutability": "nonpayable",
      "type": "constructor"
    },
    {
      "inputs": [
        {
          "internalType": "address",
          "name": "",
          "type": "address"
        }
      ],
      "name": "balances",
      "outputs": [
        {
          "internalType": "uint256",
          "name": "",
          "type": "uint256"
        }
      ],
      "stateMutability": "view",
      "type": "function"
    },
    {
      "inputs": [
        {
          "internalType": "bytes32",
          "name": "",
          "type": "bytes32"
        }
      ],
      "name": "complaints",
      "outputs": [
        {
          "internalType": "address",
          "name": "submitter",
          "type": "address"
        },
        {
          "internalType": "uint256",
          "name": "blocknumber",
          "type": "uint256"
        },
        {
          "internalType": "bytes32",
          "name": "descHash",
          "type": "bytes32"
        },
        {
          "internalType": "bytes32",
          "name": "matchId",
          "type": "bytes32"
        }
      ],
      "stateMutability": "view",
      "type": "function"
    },
    {
      "inputs": [
        {
          "internalType": "address",
          "name": "",
          "type": "address"
        }
      ],
      "name": "scores",
      "outputs": [
        {
          "internalType": "uint256",
          "name": "",
          "type": "uint256"
        }
      ],
      "stateMutability": "view",
      "type": "function"
    }
  ],
  "bytecode": "0x608060405234801561001057600080fd5b506040516101e03803806101e083398101604081905261002f91610037565b600355610050565b60006020828403121561004957600080fd5b5051919050565b6101818061005f6000396000f3fe608060405234801561001057600080fd5b50600436106100415760003560e01c806327e235e31461004657806376dd110f14610079578063e307bf2a14610099575b600080fd5b610066610054366004610102565b60006020819052908152604090205481565b6040519081526020015b60405180910390f35b610066610087366004610102565b60016020526000908152604090205481565b6100d86100a7366004610132565b60026020526000908152604090208054600382015460048301546005909301546001600160a01b0390921692909184565b604080516001600160a01b0390951685526020850193909352918301526060820152608001610070565b60006020828403121561011457600080fd5b81356001600160a01b038116811461012b57600080fd5b9392505050565b60006020828403121561014457600080fd5b503591905056fea264697066735822122083694637354b744e75e9810bcc066561b70739b78a6eb3938a8d7e3ad6f4fb8d64736f6c63430008180033",
  "linkReferences": {},
  "deployedLinkReferences": {}
}